:10000000001000202B01000031010000330100002E
:1000100000000000000000000000000000000000E0
:10002000000000000000000000000000350100009A
:10003000000000000000000037010000C1000000C7
:10004000110100001301000015010000170100005C
:10005000190100001B0100001D010000000000004C
:100060001F0100002101000023010000000000002A
:100070000000000025010000270100002901000008
:100080000000000000000000000000000000000070
:100090000000000000000000000000000000000060
:1000A0000000000000000000000000000000000050
:1000B0000000000000000000000000000000000040
:1000C00002480168491C01607047C04600000020DA
:1000D0007D20C1000B4A5160002393600723136009
:1000E00001221206084B1A60084C25681A61860026
:1000F000AE192768B742FCD3DA606D182668AE42A5
:10010000FCD3F3E710E000E00844004100000020C9
:10011000FEE7FEE7FEE7FEE7FEE7FEE7FEE7FEE7B7
:10012000FEE7FEE7FEE7FEE7FEE700F005F8FEDE8D
:10013000FEE7FEE7FEE7FEE708480949094A01E055
:1001400008C808C19142FBD30748084901E00022D2
:1001500004C08842FBD3FFF7BBFFFEDE7001000046
:10016000000000200000002000000020040000200B
:00000001FF
