:10000000001000102D010000370100003901000030
:1000100000000000000000000000000000000000E0
:100020000000000000000000000000003B01000094
:1000300000000000000000003D010000C1000000C1
:100040003F010000410100004301000045010000A4
:1000500047010000490100004B0100004D01000074
:100060004F01000051010000530100005501000044
:1000700057010000590100005B0100005D01000014
:100080005F010000610100006301000065010000E4
:10009000670100006901000000000000000000008E
:1000A0006B0100006D0100006F0100000000000006
:1000B000710100007301000075010000770100006C
:1000C00002480168491C01607047C04600000010EA
:1000D00081B01249124848600020886007220A60F7
:1000E0000123DC030F490D682E597D210091890001
:1000F0000A460C3232432A51DA02AB180A4C256800
:10010000C2431A606E182268B242FCD31860009A8B
:10011000D200AD182268AA42FCD3F1E710E000E05B
:10012000E02E0000B40100000000001080B500AF18
:1001300000F022F8FEDEFEE7FEE7FEE7FEE7FEE760
:10014000FEE7FEE7FEE7FEE7FEE7FEE7FEE7FEE787
:10015000FEE7FEE7FEE7FEE7FEE7FEE7FEE7FEE777
:10016000FEE7FEE7FEE7FEE7FEE7FEE7FEE7FEE767
:10017000FEE7FEE7FEE7FEE780B500AF0848094965
:10018000094A914202D208C808C1FAE7074808495B
:10019000884202D2002204C0FAE7FFF799FFFEDE90
:1001A000C40100000000001000000010000000105A
:0401B0000400001037
:1001B40000000050000001500000025000000350F5
:00000001FF
