:1000000000040010F1040000F7040000F9040000EF
:1000100000000000000000000000000000000000E0
:10002000000000000000000000000000FB040000D1
:100030000000000000000000FD040000FF040000BC
:10004000C9040000CB04000000000000CD04000043
:10005000CF040000D10400000000000000000000F8
:10006000D3040000D5040000D7040000D904000028
:10007000DB040000DD04000000000000DF040000DD
:100080000000000000000000000000000000000070
:100090000000000000000000000000000000000060
:1000A000E1040000E3040000E5040000E7040000B0
:1000B000E9040000EB040000ED040000EF04000080
:1000C000F0B595B007900A6802924A688F68CB68CD
:1000D00004930C694969302308AE03250696F5544C
:1000E00020230593099300260896139112941094E7
:1000F000744B0F9307AB0E930C960A96CB00E31844
:100100001193002F00D199E0049B9342114600D82F
:100110001946002900D1C2E00491019206993031BC
:100120000691029A06CA8A1806E003680C789D6850
:100130006D07FCD5DC61491C9142F6D1029D0C355E
:100140000024E043012680000390B86809900598D8
:10015000385C06990870F8680890B869012806D0DC
:1001600002280FD0032821461CD0F86919E0F8694D
:10017000C200129B9818406853498842214611D109
:1001800098580DE0109A1198824221460AD01046E4
:100190000830109050684C498842214602D11068BE
:1001A000006801210B900A913869012806D00228C5
:1001B0000FD0032821461CD0786919E07869C20065
:1001C000129B9818406840498842214611D198589E
:1001D0000DE0109A1198824221460AD0104608304C
:1001E0001090506838498842214602D11068006852
:1001F00001210D900C913868012804D17868C00065
:100200001299081803E01098014608311091011D59
:100210000A68006808A9904700284DD104988642D2
:100220003CD2039829580F98C3682A680E989847BB
:1002300008352437761C002887D03DE091421346CC
:1002400000D80B46002B2AD006930192029A06CAC8
:100250008A1806E003680D789E687607FCD5DD6194
:10026000491C9142F6D1029F0C370020C043012661
:10027000850005CC08A9083C904700281CD10698A9
:1002800086420BD279590F98C3683A680E989847FE
:1002900008370834761C0028EBD00DE0019AB242F2
:1002A0000CD9F000029A1158101842680F98C368D0
:1002B0000E989847002801D0012000E0002015B0DA
:1002C000F0BDC0461C090000FD07000070471CB5CA
:1002D0000068002201927F2903D801AA117001222F
:1002E0002FE0CA0A0AD13F220A40803201AB5A707D
:1002F0004905C90EC0311970022222E00A0C0ED144
:100300003F220A40803201AB9A700A05920E803279
:100310005A700904090FE0311970032211E03F22DD
:100320000A40803201ABDA708A0CF02414431C704E
:100330000A05920E80329A708903890E80315970B5
:10034000042201A900F020F8002002B010BDB0B5D1
:1003500086B004686D461822284600F064FA2046EC
:100360002946FFF7ADFE06B0B0BD80B5006800F0CD
:100370000BF8002080BDD4D4024800E0401E0028C5
:10038000FCD1704740420F00B0B58A1806E0036800
:100390000C789D686D07FCD5DC61491C9142F6D153
:1003A000B0BDD4D48CB03848C16F384A11408031C8
:1003B000C167FF210B02364C25689D4325602368E9
:1003C00004251D43FB239D432560C36F1340C36772
:1003D000304A13680224009423431360C26F2E4BEB
:1003E00013400124A2039A18C26702682B4B1A40DB
:1003F000026002681A4008320260294801940460D1
:10040000C165A0210166274800680321016205211A
:100410000160029000270397009E2348059003A8DF
:10042000049001980B9004A80A90099708970796E2
:100430001E48069002AC06A920461D4DA847039809
:10044000401C03901B4806600B971B480A900997B5
:100450000897019D07951948069006A92046144A59
:100460009047FFF789FF164806600B9712480A90DD
:100470000997089707951348069006A920460C4A45
:100480009047FFF779FFC8E7048004407FFF0F0023
:1004900000C00040002000A0FFBF0F00F71F0000B9
:1004A00094800440340900000B0800004C0900004F
:1004B000C1000000802200A0880900006C09000033
:1004C000002200A080090000FEE7FEE7FEE7FEE74D
:1004D000FEE7FEE7FEE7FEE7FEE7FEE7FEE7FEE7F4
:1004E000FEE7FEE7FEE7FEE7FEE7FEE7FEE7FEE7E4
:1004F00000F006F8FEDEFEE7FEE7FEE7FEE7FEE7B9
:1005000008480949094A01E008C808C19142FBD3DB
:100510000748084901E0002204C08842FBD3FFF7E6
:1005200041FFFEDE500A0000000000100000001035
:100530000000001000000010F0B591B00192009191
:1005400004469C4884424BD30020C0430290272796
:100550002046069704460590964900F06DF901463D
:1005600004909548484320180390642100F064F9F2
:1005700007A9CA19029D6B00D11846008F4CA75DD0
:100580000124E4430F55069F8C4CA41964784C5504
:10059000633D4543039840194000884D2C5CD4547A
:1005A000049C2818407848703F1F8548059981426F
:1005B0002046CED8632C16DDA0B2642100F03CF9B1
:1005C0006321C9434143091989B249007B4A535CFD
:1005D000BF1E07ACE355E31951184978597003E081
:1005E0002727632CE8DC20460928019E04DC791EBD
:1005F000303007AA505409E04000704A135CB91E1D
:1006000007AC635463181018407858702720471AB5
:1006100007AA0098002806D0306801230340002B69
:1006200006D02B2406E030687C1C2D23069303E0C3
:10063000112424040694DC19511805914107C917A7
:10064000604D0D40B168012914D10497F768A742A5
:100650001DD900072AD430200199095C032900D153
:1006600001213F1B00208A073CD002293DD00021F8
:1006700003913FE0304606992A4600F0A5F800288D
:1006800045D1B069F169CB6805993A460BE030462F
:1006900006992A4600F098F8002838D1B069F16927
:1006A000CB680599049A984707467EE030200121DF
:1006B000019E039131547060304606992A4600F03D
:1006C00083F8002870D130363178032900D1012118
:1006D0003C1B00208A073CD00229019F3DD000210D
:1006E00006913FE00397074604E079087A1C520818
:1006F00003920F46C6433446641CBC4209D2019A99
:1007000051689069D269126990470028F4D0012796
:100710004BE0019C60680290204606992A4600F052
:1007200053F80127002840D1A069E169CB680599F9
:10073000049A9847002838D1A569E469761C039883
:10074000864235D222692846029990470028F5D082
:100750002BE006940446019F04E06108621C5208E5
:1007600006920C46C64335466D1CA54207D27968F1
:10077000B869FA69126990470028F5D014E07D68DD
:10078000B869F969CB680599049A984700280BD194
:10079000BC69FF69761C0698864209D23A692046F0
:1007A000294690470028F5D0039F384611B0F0BD88
:1007B0000027FAE710270000F0D8FFFF88090000A3
:1007C000FFE0F50588090000B0B514460546112084
:1007D0000004814207D0A869EA691269904700289D
:1007E00001D00120B0BD002C06D0A869E969CB6812
:1007F000002221469847B0BD0020B0BD80B50A4612
:1008000000680121FFF798FE80BD80B50A460068A8
:10081000002801DA002100E00121C317C018584068
:10082000FFF78AFE80BD002A05D00B780370491CB3
:10083000401C521EF9D17047F0B581B000293AD062
:1008400004460020002C34D00D46202700293E46C7
:10085000009004D0284600F030F806460098002C9E
:1008600004D0204600F029F807460098F11B1F2904
:100870001FD802D1204601B0F0BD701CC01B4B1C1C
:100880001F2633402246DA40711A31408C40002145
:10089000E30F5200D218D3435B19DB171E462E40DC
:1008A000921B64000C4301211940401EF0D16000EE
:1008B000081801B0F0BDFEDEFEDE020C03D01021F0
:1008C000002A03D103E02021002A00D01046020AAA
:1008D0000ED1002A0FD1020910D1002A11D18208AD
:1008E00012D1002A13D1012814D840424018704771
:1008F0000839002AEFD010460209EED0091F002A5D
:10090000EDD010468208ECD0891E002AEBD01046AC
:0C0910000128EAD90120C04340187047BC
:10091C00CD02000004000000040000006B03000086
:10092C00CF0200004F03000000400640008006404C
:10093C0000C0064048656C6C6F20000021202D2003
:10094C0040090000060000004809000004000000F7
:10095C00626C696E6B2068696768202D200000004E
:10096C005C0900000D000000626C696E6B206C6FFE
:10097C00770A0000740900000A00000030303031A2
:10098C00303230333034303530363037303830392F
:10099C003130313131323133313431353136313727
:1009AC00313831393230323132323233323432350D
:1009BC0032363237323832393330333133323333F3
:1009CC0033343335333633373338333934303431D9
:1009DC0034323433343434353436343734383439BF
:1009EC0035303531353235333534353535363537B7
:1009FC00353835393630363136323633363436359D
:100A0C003636363736383639373037313732373382
:100A1C003734373537363737373837393830383168
:100A2C00383238333834383538363837383838394E
:100A3C003930393139323933393439353936393746
:040A4C0039383939C3
:00000001FF
