:1000000000100010990100009F010000A1010000F4
:1000100000000000000000000000000000000000E0
:10002000000000000000000000000000A30100002C
:100030000000000000000000A5010000A701000072
:1000400069010000000000006B0100006D0100006C
:100050006F010000000000000000000071010000BE
:10006000730100000000000075010000770100002E
:10007000790100007B010000000000007D0100000C
:100080007F01000081010000830100008501000064
:1000900000000000000000000000000087010000D8
:1000A000890100008B0100008D0100008F0100001C
:1000B00091010000930100009501000097010000EC
:1000C00021480168214A114080310160FF210B0263
:1000D0001F4C25689D432560236804251D43FB2391
:1000E0009D4325600368134003600268194B134069
:1000F000012294031B1903608368174D2B40836012
:1001000083682B401B1983600165A02141658265CE
:10011000022101611148006803210162052101608B
:100120000F49104A0B4605E01C7885686D07FCD521
:10013000C4615B1C0C460E34A342F5D1134600E0AB
:100140005B1E002BFCD1EDE78080044077EE2E1B78
:1001500000C00040F7AE2E1BF0AE2C1BE0010000EB
:10016000E801000040420F00FEE7FEE7FEE7FEE781
:10017000FEE7FEE7FEE7FEE7FEE7FEE7FEE7FEE757
:10018000FEE7FEE7FEE7FEE7FEE7FEE7FEE7FEE747
:10019000FEE7FEE7FEE7FEE700F006F8FEDEFEE71C
:1001A000FEE7FEE7FEE7FEE708480949094A01E0E5
:1001B00008C808C19142FBD30748084901E0002262
:1001C00004C08842FBD3FFF77BFFFEDEF80100008E
:1001D00000000010000000100000001000000010DF
:1001E000004006400080064048656C6C6F20776FC9
:0601F000726C64210D0A8F
:00000001FF
