:1000000000400010A5010000AB010000AD010000A0
:1000100000000000000000000000000000000000E0
:10002000000000000000000000000000AF01000020
:100030000000000000000000B1010000B30100005A
:10004000690100006B0100006D0100006F010000FC
:100050007101000073010000000000007501000044
:1000600077010000790100007B0100007D010000A4
:100070007F01000081010000830100008501000074
:1000800087010000890100008B0100008D01000044
:100090008F010000910100009301000000000000AA
:1000A0009501000097010000990100009B010000EC
:1000B0009D0100009F010000A1010000A3010000BC
:1000C00081B021480168214A11404031016040322D
:1000D0000168114001273A050A43026000251C4CC3
:1000E0001C4B2E4600953146202E2E46FBD01F225B
:1000F0000A40384690404E1C184A1042F3D0184A25
:100100001060154A1060254600E06D1E002DFCD1E0
:1001100000250DE03A46AA406D1C0A4201D0186045
:1001200001E00D4A1060224600E0521E002AFCD178
:10013000082DEFD118602146009D00E0491E0029DE
:10014000FCD108490860CEE780800440B7FFEFFF8C
:10015000CE1D0000002200A0802200A0D3FCFF1FC3
:10016000802300A0002400A0FEE7FEE7FEE7FEE7F4
:10017000FEE7FEE7FEE7FEE7FEE7FEE7FEE7FEE757
:10018000FEE7FEE7FEE7FEE7FEE7FEE7FEE7FEE747
:10019000FEE7FEE7FEE7FEE7FEE7FEE7FEE7FEE737
:1001A000FEE7FEE700F006F8FEDEFEE7FEE7FEE70C
:1001B000FEE7FEE708480949094A01E008C808C106
:1001C0009142FBD30748084901E0002204C088425D
:1001D000FBD3FFF775FFFEDEEC010000000000100E
:0C01E000000000100000001000000010E3
:00000001FF
