:10000000001000108D010000930100009501000018
:1000100000000000000000000000000000000000E0
:100020000000000000000000000000009701000038
:100030000000000000000000990100009B0100008A
:100040005D010000000000005F0100006101000090
:1000500063010000000000000000000065010000D6
:100060006701000000000000690100006B01000052
:100070006D0100006F010000000000007101000030
:100080007301000075010000770100007901000094
:100090000000000000000000000000007B010000E4
:1000A0007D0100007F01000081010000830100004C
:1000B0008501000087010000890100008B0100001C
:1000C00081B01E4801681E4A0A4040320260002189
:1000D0001C4B1D4A1E4E0846009107461F28084625
:1000E000FBD001242546BD40781C3542F5D0194986
:1000F0000D6016490D601E4600E0761E002EFCD1F4
:1001000000260DE02146B140761C394201D0156031
:1001100001E00E490D60194600E0491E0029FCD19E
:10012000082EEFD115601C460099094E00E0641EB0
:10013000002CFCD1084C2560CFE7C04680800440ED
:10014000B7EE2E1B581B0000002200A0802200A04A
:1001500093FFFF7F802300A0002400A0FEE7FEE7BE
:10016000FEE7FEE7FEE7FEE7FEE7FEE7FEE7FEE767
:10017000FEE7FEE7FEE7FEE7FEE7FEE7FEE7FEE757
:10018000FEE7FEE7FEE7FEE7FEE7FEE700F006F823
:10019000FEDEFEE7FEE7FEE7FEE7FEE70848094968
:1001A000094A01E008C808C19142FBD30748084941
:1001B00001E0002204C08842FBD3FFF781FFFEDE8E
:1001C000D40100000000001000000010000000102A
:0401D000000000101B
:00000001FF
