:1000000000100010350100003B0100003D01000020
:1000100000000000000000000000000000000000E0
:100020000000000000000000000000003F01000090
:10003000000000000000000041010000430100003A
:100040000D0100000F010000000000001101000080
:100050001301000015010000000000000000000076
:1000600017010000190100001B0100001D01000024
:100070001F0100002101000000000000230100001A
:100080000000000000000000000000000000000070
:100090000000000000000000000000000000000060
:1000A0002501000027010000290100002B010000AC
:1000B0002D0100002F01000031010000330100007C
:1000C0000120C0030D490A6802430A6000210C4A5E
:1000D0000C4B0D4C0E463546022E0E46FBD01060E2
:1000E0001E4600E0761E002EFCD18026905126464A
:1000F00000E0761E002EFCD16E1CECE7002000A074
:10010000002200A0400D0300A0860100FEE7FEE7EC
:10011000FEE7FEE7FEE7FEE7FEE7FEE7FEE7FEE7B7
:10012000FEE7FEE7FEE7FEE7FEE7FEE7FEE7FEE7A7
:10013000FEE7FEE700F006F8FEDEFEE7FEE7FEE77C
:10014000FEE7FEE708480949094A01E008C808C176
:100150009142FBD30748084901E0002204C08842CD
:10016000FBD3FFF7ADFFFEDE8401000000000010AE
:0C01700000000010000000100000001053
:08017C0044FFFF7F01000000B9
:00000001FF
