:1000000000080010890100008F010000910100002C
:1000100000000000000000000000000000000000E0
:10002000000000000000000000000000930100003C
:100030000000000000000000950100009701000092
:100040005D01000000000000000000005F010000F2
:10005000610100000000000000000000000000003E
:10006000630100000000000065010000670100005E
:10007000690100006B010000000000006D0100003C
:100080006F010000710100007301000075010000A4
:1000900000000000000000000000000077010000E8
:1000A000790100007B0100007D0100007F0100005C
:1000B000810100008301000085010000870100002C
:1000C00081B01E4801681E4A0A4040320260002189
:1000D0001C4B1D4A1E4E0846009107461228084632
:1000E000FBD001242546BD40781C3542F5D0194986
:1000F0000D6016490D601E4600E0761E002EFCD1F4
:1001000000260DE02146B140761C394201D0156031
:1001100001E00E490D60194600E0491E0029FCD19E
:10012000082EEFD115601C460099094E00E0641EB0
:10013000002CFCD1084C2560CFE7C04680800440ED
:10014000B7EE2E1B70170000002200A0802200A036
:1001500093FF0300802300A0002400A0FEE7FEE739
:10016000FEE7FEE7FEE7FEE7FEE7FEE7FEE7FEE767
:10017000FEE7FEE7FEE7FEE7FEE7FEE7FEE7FEE757
:10018000FEE7FEE7FEE7FEE700F006F8FEDEFEE72C
:10019000FEE7FEE7FEE7FEE708480949094A01E0F5
:1001A00008C808C19142FBD30748084901E0002272
:1001B00004C08842FBD3FFF783FFFEDED0010000BE
:1001C00000000010000000100000001000000010EF
:00000001FF
