:1000000000040010F1060000FB060000FD060000E1
:1000100000000000000000000000000000000000E0
:10002000000000000000000000000000FF060000CB
:1000300000000000000000000107000003070000AE
:100040000507000007070000000000000907000086
:100050000B0700000D07000000000000000000007A
:100060000F0700001107000013070000150700002C
:100070001707000019070000000000001B07000020
:100080000000000000000000000000000000000070
:100090000000000000000000000000000000000060
:1000A0001D0700001F0700002107000023070000B4
:1000B0002507000027070000290700002B07000084
:1000C000F0B503AF91B007900E684D688C68CA68B0
:1000D0000869069048690490202008A90323059127
:1000E0000B540990002008904C4B0F9307AB0E93D4
:1000F0000C900A90002C5BD0AA42294600D81146E9
:10010000002979D0029505982030059001910D467F
:1001100003967268002A06D00F98C36831680E985B
:100120009847002874D1207F05990870606809906D
:10013000A06808906269A1690020002A0DD0012AF8
:1001400002460BD1CB000699C9184968344A91423E
:10015000024603D10699C958096801220B910A92F7
:10016000E2682169002A0ED0012A0ED1C900069B3F
:100170000491591849682A4A914207D1049818589D
:100180000168012002E00120FFE7069B0D910C9021
:100190002068C100585859184A6808A99047002893
:1001A00036D16D1E20340836002DB2D1019821E0E1
:1001B000049AAA42294600D811460029069C1BD061
:1001C000029505910D4603967268002A06D00F9895
:1001D000C36831680E989847002819D105CC08A942
:1001E000083C9047002813D16D1E08360834002DB6
:1001F000EAD10598039E029DA8420BD2C000315857
:10020000301842680F98C3680E989847002801D0AC
:10021000012000E0002011B0F0BDC046A808000099
:10022000350400007047DCB504AF0068002201927D
:10023000802903D201AA117001222FE0CA0A0AD133
:100240003F220A40803201AB5A708909C0220A431A
:100250001A70022222E00A0C0ED13F220A4080329C
:1002600001AB9A700A0BE02414431C700905890E37
:1002700080315970032211E03F220A40803201ABE5
:10028000DA708A0CF02414431C700A05920E803236
:100290009A708903890E80315970042201A900F0F7
:1002A00023F80020DCBDB0B502AF86B004686D460F
:1002B0001822284600F0E7FA20462946FFF700FFFB
:1002C00006B0B0BD80B500AF006800F00DF80020AA
:1002D00080BDD4D480B500AF0248002801D0401EB4
:1002E000FBE780BD40420F00B0B502AF8A1800683E
:1002F000914207D003680C789D686D07FCD5DC61DE
:10030000491CF5E7B0BDD4D480B500AF8EB03848F5
:10031000C16F384A11408031C167FF210B02364C52
:1003200025689D432560236804251D43FB239D43C9
:100330002560C36F1340C367304A136802240294D8
:1003400023431360C26F2E4B13400124A2039A185B
:10035000C26702682B4B1A40026002681A400832DA
:100360000260294801940460C165A0210166274804
:1003700003210162052101602548049000250595AF
:10038000019C029E0D9406A80C900B950A95099667
:10039000204808902048079005A8069004A80390DC
:1003A00008A91E4A90471E4806600598401C059003
:1003B0000D951C480C900B950A9509941A480890C5
:1003C00008A90398154A9047FFF784FF174806606D
:1003D0000D9514480C900B950A95099414480890B3
:1003E00008A903980D4A9047FFF774FFCAE7C04673
:1003F000048004407FFF0F0000C00040002000A0E8
:10040000FFBF0F00F71F000094800440004006402B
:10041000C0080000D8080000F1050000C10000007D
:10042000802200A014090000F8080000002200A0AB
:100430000C0900000068FEE7F0B503AF87B0029238
:100440000646002905D030680121014006D02B2244
:1004500006E030685C1C2D21039103E01122120498
:100460000392CC184107C917524D0D40B1680129BC
:1004700013D1F268A24210D90007019321D42020A1
:10048000315C032900D10121101B8A073ED00129CC
:100490003ED10021009101463EE01C4630460399C2
:1004A0002A4600F089F8002801D0012406E0B0694E
:1004B000F169CB680299224698470446204607B066
:1004C000F0BD06922020315C049101210591315448
:1004D0007068009030207060304603992A4600F022
:1004E0006BF8002810D13046203003900698001B8E
:1004F000451CB0690690F4696D1E46D02269302112
:10050000069890470028F7D0059CD7E7002102E025
:100510004108401C400800904C1C70680690B0696F
:100520000590F0690490641E07D00498026905984C
:10053000069990470028F6D0B7E7112000040699E5
:10054000814201D100210091012406998142B5D058
:10055000304603992A4600F02FF80028AED10498BF
:10056000C36805980299019A98470028A6D10024EB
:10057000009DA54217D004980269059806999047F6
:10058000641C0028F5D0601E0EE0E368069802990E
:10059000019A98470028059C90D104980399087007
:1005A0000098706003E02846A84200D27DE700244E
:1005B00084E7C04614090000B0B502AF14460546F2
:1005C00011200004814207D0A869EA6912699047A6
:1005D000002801D00120B0BD002C06D0A869E9692F
:1005E000CB68002221469847B0BD0020B0BDD4D4CE
:1005F000F0B503AF8FB001910168C81700910918D9
:100600004140364B3648814231D30120C043272632
:10061000400002900D462846314900F0A5F80146F9
:100620000490304848434019039080B2642100F0A0
:100630009BF805A9891942002B4B9B5C029C0B552A
:10064000264B0919284CA21852784A705843039A2D
:10065000801880B24000225C8A7020184078C870F0
:100660000499361F214885420D46D4D800E027263C
:10067000354663291FDD88B20E4664211C4600F012
:1006800073F84443A11989B24900174A535CAD1E5F
:1006900005AC635563195118497859700A280DDB68
:1006A0004000114A135CA91E05AC6354631810186E
:1006B0004078587006E008460A28F1DA691E3030A2
:1006C00005AA505405A842182720431A0098C04391
:1006D000C10F0198FFF7B0FE0FB0F0BD9CFF000006
:1006E00010270000F0D8FFFF14090000FFE0F50517
:1006F00080B500AF00F01AF8FEDEFEE7FEE7FEE789
:10070000FEE7FEE7FEE7FEE7FEE7FEE7FEE7FEE7C1
:10071000FEE7FEE7FEE7FEE7FEE7FEE7FEE7FEE7B1
:10072000FEE7FEE7FEE7FEE7FEE7FEE780B500AF87
:1007300008480949094A914202D208C808C1FAE7A3
:1007400007480849884202D2002204C0FAE7FFF7AE
:10075000DBFDFEDEDC0900000000001000000010E0
:10076000000000100000001080B500AF00F001F89C
:1007700080BDF0B503AF83B00246884203D20020AB
:10078000114603B0F0BD150CA942104639D9060A2E
:10079000B1423AD9030999423BD90193830899425E
:1007A00000D81846029343080124002099422346AA
:1007B00000D90346A942254600D9054600932D01DC
:1007C000B142264600D90646F3005D19019B9942C5
:1007D000234600D903469B00EB18029DA9422546FB
:1007E00000D9054668001818009BC3189C400D46A8
:1007F0009D40561B8E4212D232462046114603B00F
:10080000F0BD2846060AB142C4D8304603099942D1
:10081000C3D81846019383089942C2D9C2E7002D74
:1008200003D421462046324615E06D08721B5B1E3C
:100830001F200193184002900120029B9840002A3B
:10084000029000DA0020002A00DA324620438A4271
:100850000299019B94D3491E002B0AD06D1E1446A9
:100860001A466400641BE6172E403419521EF8D154
:1008700000E014461F2213402246DA40214008437C
:10088000114603B0F0BD80B500AF00F001F880BDA7
:10089000D0B502AF002A06D003460C781C70491C64
:0808A0005B1C521EF9D1D0BD12
:1008A800250200000400000004000000C50200004A
:1008B80027020000A7020000004006400080064012
:1008C80000C0064048656C6C6F2021202D20000078
:1008D800CC08000006000000D20800000400000058
:1008E800626C696E6B2068696768202D20000000C3
:1008F800E80800000D000000626C696E6B206C6FE8
:10090800770A0000000900000A000000303030318A
:1009180030323033303430353036303730383039A3
:10092800313031313132313331343135313631379B
:100938003138313932303231323232333234323581
:100948003236323732383239333033313332333367
:10095800333433353336333733383339343034314D
:100968003432343334343435343634373438343933
:10097800353035313532353335343535353635372B
:100988003538353936303631363236333634363511
:1009980036363637363836393730373137323733F7
:1009A80037343735373637373738373938303831DD
:1009B80038323833383438353836383738383839C3
:1009C80039303931393239333934393539363937BB
:0409D8003938393938
:00000001FF
