:1000000000100010950100009B0100009D01000000
:1000100000000000000000000000000000000000E0
:100020000000000000000000000000009F01000030
:100030000000000000000000A1010000A30100007A
:100040006D0100006F010000000000007101000060
:1000500073010000750100000000000000000000B6
:1000600077010000790100007B0100007D010000A4
:100070007F010000810100000000000083010000FA
:100080000000000000000000000000000000000070
:100090000000000000000000000000000000000060
:1000A0008501000087010000890100008B0100002C
:1000B0008D0100008F0100009101000093010000FC
:1000C0002148C16F214A11408031C167FF210B02D5
:1000D0001F4C25689D432560236804251D43FB2391
:1000E0009D432560C36F1340C367C26F194B134014
:1000F000012294031B19C3670368174C2340036054
:10010000036823400833036014480260C165A021DE
:10011000016613480068032101620521016011494D
:10012000114A0B4605E01C7885686D07FCD5C46153
:100130005B1C0C460E34A342F5D1134600E05B1E57
:10014000002BFCD1EDE7C046048004407FFF0F0088
:1001500000C00040FFBF0F00F71F00009480044064
:10016000DC010000E801000040420F00FEE7FEE76E
:10017000FEE7FEE7FEE7FEE7FEE7FEE7FEE7FEE757
:10018000FEE7FEE7FEE7FEE7FEE7FEE7FEE7FEE747
:10019000FEE7FEE700F006F8FEDEFEE7FEE7FEE71C
:1001A000FEE7FEE708480949094A01E008C808C116
:1001B0009142FBD30748084901E0002204C088426D
:1001C000FBD3FFF77DFFFEDEF8010000000000100A
:0C01D000000000100000001000000010F3
:1001DC00004006400080064000C0064048656C6C3C
:0A01EC006F20776F726C64210D0A1A
:00000001FF
