:10000000004000106D010000730100007501000048
:1000100000000000000000000000000000000000E0
:100020000000000000000000000000007701000058
:100030000000000000000000790100007B010000CA
:1000400031010000330100003501000037010000DC
:10005000390100003B010000000000003D010000EC
:100060003F01000041010000430100004501000084
:1000700047010000490100004B0100004D01000054
:100080004F01000051010000530100005501000024
:1000900057010000590100005B0100000000000052
:1000A0005D0100005F0100006101000063010000CC
:1000B0006501000067010000690100006B0100009C
:1000C00014480168144A114040310160403201680F
:1000D0001140012213050B43036010480260002009
:1000E0000F49104A104B114C06463546022E064663
:1000F000FBD001260E60164600E0761E002EFCD1D5
:1001000001261E60264600E0761E002EFCD16E1CE5
:10011000EBE7C04680800440B7FFEFFF802300A0DC
:10012000002200A0400D0300802200A0A086010054
:10013000FEE7FEE7FEE7FEE7FEE7FEE7FEE7FEE797
:10014000FEE7FEE7FEE7FEE7FEE7FEE7FEE7FEE787
:10015000FEE7FEE7FEE7FEE7FEE7FEE7FEE7FEE777
:10016000FEE7FEE7FEE7FEE7FEE7FEE700F006F843
:10017000FEDEFEE7FEE7FEE7FEE7FEE70848094988
:10018000094A01E008C808C19142FBD30748084961
:1001900001E0002204C08842FBD3FFF791FFFEDE9E
:1001A000B40100000000001000000010000000106A
:0401B000000000103B
:00000001FF
