:1000000000400010A9010000B3010000B50100008C
:1000100000000000000000000000000000000000E0
:10002000000000000000000000000000B701000018
:10003000000000000000000079010000C100000085
:10004000B9010000BB010000BD010000BF010000BC
:10005000C1010000C301000000000000C501000054
:10006000C7010000C9010000CB010000CD01000064
:10007000CF010000D1010000D3010000D501000034
:10008000D7010000D9010000DB010000DD01000004
:10009000DF010000E1010000E301000000000000BA
:1000A000E5010000E7010000E9010000EB010000AC
:1000B000ED010000EF010000F1010000F30100007C
:1000C00002480168491C01607047C04600000010EA
:1000D00080B500AF07490A68032A06D892000B1DB5
:1000E000985000200860486880BD0421104600F048
:1000F0003DF8FEDE04000010134814494160002161
:1001000081600721016012490868124A104040309E
:10011000086040320B681340012002059A180A60FB
:100120000D4908600D490A680E4C0F4D0C4B1860C4
:10013000A61A0B68F318FCD428607D23DB00D218C4
:100140000B689B1AFCD4F1E710E000E0E02E000001
:1001500080800440B7FFEFFF802300A00000001064
:10016000002200A00CFEFFFF802200A080B500AF9F
:1001700000F001F8FEDEFEE7EFF309802038F0C062
:1001800044464D4656465F46F0C02038FFF7A0FF74
:100190001030F0C8A046A946B246BB4680F3098895
:1001A0002038F0C87047FEDE80B500AF00F022F8BE
:1001B000FEDEFEE7FEE7FEE7FEE7FEE7FEE7FEE720
:1001C000FEE7FEE7FEE7FEE7FEE7FEE7FEE7FEE707
:1001D000FEE7FEE7FEE7FEE7FEE7FEE7FEE7FEE7F7
:1001E000FEE7FEE7FEE7FEE7FEE7FEE7FEE7FEE7E7
:1001F000FEE7FEE780B500AF08480949094A914289
:1002000002D208C808C1FAE707480849884202D262
:10021000002204C0FAE7FFF76FFFFEDE30020000A5
:100220000000001000000010000000101800001076
:00000001FF
