:1000000000080010650100006B0100006D01000098
:1000100000000000000000000000000000000000E0
:100020000000000000000000000000006F01000060
:10003000000000000000000071010000C10000008D
:100040003901000000000000000000003B0100003A
:100050003D01000000000000000000000000000062
:100060003F010000000000004101000043010000CA
:1000700045010000470100000000000049010000A8
:100080004B0100004D0100004F0100005101000034
:10009000000000000000000000000000530100000C
:1000A0005501000057010000590100005B010000EC
:1000B0005D0100005F0100006101000063010000BC
:1000C00002480168491C01607047C04600000010EA
:1000D00011481249416000218160072101601048E8
:1000E0000168104A0A40403202600120C0030E49F4
:1000F00008600E490A680E4B0E4C18607D25AE0054
:1001000096190F68B742FCD32060ED0052190D68B4
:100110009542FCD3F1E7C04610E000E0E02E00007D
:1001200080800440B7EE2E1B802300A0000000104A
:10013000002200A0802200A0FEE7FEE7FEE7FEE727
:10014000FEE7FEE7FEE7FEE7FEE7FEE7FEE7FEE787
:10015000FEE7FEE7FEE7FEE7FEE7FEE7FEE7FEE777
:10016000FEE7FEE700F006F8FEDEFEE7FEE7FEE74C
:10017000FEE7D4D408480949094A01E008C808C183
:100180009142FBD30748084901E0002204C088429D
:10019000FBD3FFF79DFFFEDEAC0100000000001066
:0C01A0000000001000000010040000101F
:00000001FF
