:1000000000180020210100002B0100002D0100003C
:1000100000000000000000000000000000000000E0
:100020000000000000000000000000002F010000A0
:10003000000000000000000031010000330100005A
:100040007101000000000000730100007501000054
:1000500077010000790100007B0100007D010000B4
:10006000000000007F01000081010000830100000A
:1000700085010000870100008901000000000000E8
:100080008B0100008D010000000000008F010000C6
:10009000910100009301000095010000970100000C
:1000A000990100009B0100009D0100009F010000DC
:1000B000A1010000A301000000000000A501000054
:1000C00080B500AF002801D0401EFBE780BDD4D42E
:1000D000E0B502AF2F2040040D490A6802430A60D0
:1000E0000C48466830680124204302218843306070
:1000F00000200190054602280198FBD0B461064813
:10010000FFF7DEFFB4620548FFF7DAFF681CF1E78E
:1001100014100240A8010000400D0300A086010059
:1001200080B500AF00F006F8FEDEFEE7FEE7FEE772
:10013000FEE7FEE780B500AF08480949094A914249
:1001400002D208C808C1FAE707480849884202D223
:10015000002204C0FAE7FFF7BBFFFEDED801000073
:10016000000000200000002000000020000000200F
:10017000FEE7FEE7FEE7FEE7FEE7FEE7FEE7FEE757
:10018000FEE7FEE7FEE7FEE7FEE7FEE7FEE7FEE747
:10019000FEE7FEE7FEE7FEE7FEE7FEE7FEE7FEE737
:0601A000FEE7FEE7FEE7AA
:1001A80001000000000000480100000000040048B1
:1001B800010000000008004801000000000C004891
:1001C80000000000000000000100000000140048CA
:00000001FF
