:10000000001000204F0100005501000057010000C2
:1000100000000000000000000000000000000000E0
:100020000000000000000000000000005901000076
:1000300000000000000000005B0100005D01000006
:1000400019010000000000001B0100001D0100005C
:100050001F01000021010000230100002501000014
:100060000000000027010000290100002B01000012
:100070002D0100002F0100003101000000000000F0
:1000800033010000350100000000000037010000CE
:10009000390100003B0100003D0100003F0100006C
:1000A000410100004301000045010000470100003C
:1000B000490100004B010000000000004D0100005C
:1000C00000E0401E0028FCD17047D4D42F2040040B
:1000D0000D490A6802430A600C48466830680127E7
:1000E0003843022188433060002420460546022818
:1000F0002046FBD0B7610648FFF7E2FFB76205482C
:10010000FFF7DEFF681CF1E71410024098010000C1
:10011000400D0300A0860100FEE7FEE7FEE7FEE7D4
:10012000FEE7FEE7FEE7FEE7FEE7FEE7FEE7FEE7A7
:10013000FEE7FEE7FEE7FEE7FEE7FEE7FEE7FEE797
:10014000FEE7FEE7FEE7FEE7FEE7FEE7FEE700F07C
:1001500007F8FEDEFEE7FEE7FEE7FEE7FEE7D4D4A3
:1001600008480949094A01E008C808C19142FBD37F
:100170000748084901E0002204C08842FBD3FFF78A
:10018000A5FFFEDEC80100000000002000000020E6
:08019000000000200000002027
:1001980001000000000000480100000000040048C1
:1001A800010000000008004801000000000C0048A1
:1001B80000000000000000000100000000140048DA
:00000001FF
