:100000000020001041000000A7000000A90000002F
:10001000AB000000AD000000AF00000000000000D9
:10002000000000000000000000000000B10000001F
:100030000000000000000000B3000000B500000058
:1000400010B548F200004AF6606245F6C04C4FF029
:10005000FF3E0023C5F20300C0F20A02C0F2150CF5
:10006000016841F0010101600420C5F2030011465E
:10007000C0F800E00139FDD1114603600139FDD11E
:100080001146C0F800E00139FDD111460360013985
:10009000FDD16146C0F800E00C46013CFDD1036093
:1000A0000139FDD1E3E7FEE7FEE7FEE7FEE7FEE705
:0600B000FEE7FEE7FEE79B
:0800B80088FFFF7F010000003A
:00000001FF
