:1000000000040010190200001D0200001F02000081
:1000100000000000000000000000000000000000E0
:1000200000000000000000000000000021020000AD
:100030000000000000000000230200002502000074
:100040002702000029020000000000002B0200002F
:100050002D0200002F020000000000000000000040
:1000600031020000330200003502000037020000B8
:10007000390200003B020000000000003D020000C9
:100080000000000000000000000000000000000070
:100090000000000000000000000000000000000060
:1000A0003F02000041020000430200004502000040
:1000B00047020000490200004B0200004D02000010
:1000C000F0B54A4A11684A4C214080200143116032
:1000D000FF23D943474D2E680E402E602E680E40F8
:1000E00004210E432E601568254015601468424DAA
:1000F00025400124A6032E4316607B25ED43565967
:100100003E4F3E40565156593E40082737435751BF
:1001100054611367A0235367394A0323936107236C
:10012000DB430524D450374C256802231D4325604A
:1001300014680C42FCD04824546114680C42FCD072
:100140006524546114680C42FCD06C245461156819
:100150000D42FCD0546115680D42FCD06F255561ED
:1001600016680E42FCD02026566116680E42FCD05E
:100170007726566116680E42FCD0556115680D420F
:10018000FCD07225556115680D42FCD0546114688D
:100190000C42FCD06424546114680C42FCD021242D
:1001A000546114680C42FCD00D24546114680C4254
:1001B000FCD00A245461144D2B60144C2646761E44
:1001C000FDD12B502646761EFDD12B602646761E8D
:1001D000FDD12B50641EFDD10D4D2B600D4C2646DC
:1001E000761EFDD12B60641EFDD1A1E78080044006
:1001F0007FFF0F0000C00040FFBF0F00F71F00008F
:1002000008400640002000A0002200A020A1070016
:10021000002300A040420F00FFF752FFFEE7FEE779
:10022000FEE7FEE7FEE7FEE7FEE7FEE7FEE7FEE7A6
:10023000FEE7FEE7FEE7FEE7FEE7FEE7FEE7FEE796
:0E024000FEE7FEE7FEE7FEE7FEE7FEE7FEE76D
:0802500070FEFF7F01000000B9
:00000001FF
