:1000000000400010C10000001101000013010000B9
:1000100000000000000000000000000000000000E0
:1000200000000000000000000000000015010000BA
:10003000000000000000000017010000190100008E
:100040001B0100001D010000000000001F01000056
:100050002101000023010000000000002501000034
:1000600027010000290100002B0100002D010000E4
:100070002F010000310100003301000035010000B4
:1000800037010000390100003B0100003D01000084
:100090003F0100004101000043010000000000009A
:1000A0004501000047010000490100004B0100002C
:1000B0004D0100004F0100005101000053010000FC
:1000C000B0B580200E4901220A500E4C22600E4B22
:1000D0001D466D1EFDD122501D466D1EFDD12260B4
:1000E0001D466D1EFDD122505B1EFDD10A60074BDF
:1000F0001C46641EFDD10A605B1EFDD1E5E7C046CB
:10010000002300A0002200A020A1070040420F0011
:10011000FEE7FEE7FEE7FEE7FEE7FEE7FEE7FEE7B7
:10012000FEE7FEE7FEE7FEE7FEE7FEE7FEE7FEE7A7
:10013000FEE7FEE7FEE7FEE7FEE7FEE7FEE7FEE797
:10014000FEE7FEE7FEE7FEE7FEE7FEE7FEE7FEE787
:04015000FEE7FEE7E1
:080154006CFFFF7F01000000B9
:00000001FF
